{
  "transactions": [
    {
      "hash": "0x1afad3dc31abf80dc8de5b286d708c53851290dc61e73def31f16ecc2ba25a6c",
      "transactionType": "CALL",
      "contractName": null,
      "contractAddress": "0x57194636816ddb2b0b0c257e679db8553ceedfa2",
      "function": "register(string)",
      "arguments": [
        "jvcByte"
      ],
      "transaction": {
        "from": "0xbfb3fd95879d2819256fee1ae754d14c9641d10a",
        "to": "0x57194636816ddb2b0b0c257e679db8553ceedfa2",
        "gas": "0x9d837",
        "value": "0x0",
        "input": "0xf2c298be000000000000000000000000000000000000000000000000000000000000002000000000000000000000000000000000000000000000000000000000000000076a76634279746500000000000000000000000000000000000000000000000000",
        "nonce": "0x6",
        "chainId": "0xaa36a7"
      },
      "additionalContracts": [
        {
          "transactionType": "CREATE",
          "address": "0xbaf2624bc4a7a8acb463b9b3eb68adfda9ec5a33",
          "initCode": "0x608060405234801561001057600080fd5b506040516104e73803806104e78339818101604052602081101561003357600080fd5b5051600080546001600160a01b039092166001600160a01b0319909216919091179055610482806100656000396000f3fe6080604052600436106100705760003560e01c8063b2fa1c9e1161004e578063b2fa1c9e14610114578063c9bed76d14610129578063d96a094a14610140578063e4849b321461015d57610070565b8063697222331461007557806370a08231146100a6578063a664da90146100eb575b600080fd5b34801561008157600080fd5b5061008a610187565b604080516001600160a01b039092168252519081900360200190f35b3480156100b257600080fd5b506100d9600480360360208110156100c957600080fd5b50356001600160a01b0316610196565b60408051918252519081900360200190f35b3480156100f757600080fd5b506101006101a8565b604080519115158252519081900360200190f35b34801561012057600080fd5b506101006101ad565b34801561013557600080fd5b5061013e61022b565b005b61013e6004803603602081101561015657600080fd5b50356102dc565b34801561016957600080fd5b5061013e6004803603602081101561018057600080fd5b5035610390565b6000546001600160a01b031681565b60016020526000908152604090205481565b471590565b60008054604080516370a0823160e01b815230600482015290516001600160a01b03909216916370a0823191602480820192602092909190829003018186803b1580156101f957600080fd5b505afa15801561020d573d6000803e3d6000fd5b505050506040513d602081101561022357600080fd5b505115905090565b6102336101ad565b610284576040805162461bcd60e51b815260206004820152601d60248201527f596f752063616e27742067657420796f7572206d6f6e6579206261636b000000604482015290519081900360640190fd5b604051600090339047908381818185875af1925050503d80600081146102c6576040519150601f19603f3d011682016040523d82523d6000602084013e6102cb565b606091505b50509050806102d957600080fd5b50565b60008054604080516323b872dd60e01b8152336004820152306024820152670de0b6b3a76400008502604482015290516001600160a01b03909216916323b872dd9160648082019260209290919082900301818787803b15801561033f57600080fd5b505af1158015610353573d6000803e3d6000fd5b505050506040513d602081101561036957600080fd5b505190508061037757600080fd5b5033600090815260016020526040902080549091019055565b336000908152600160205260409020548111156103ac57600080fd5b336000818152600160209081526040808320805486900390558254815163a9059cbb60e01b81526004810195909552670de0b6b3a76400008602602486015290516001600160a01b039091169363a9059cbb9360448083019493928390030190829087803b15801561041d57600080fd5b505af1158015610431573d6000803e3d6000fd5b505050506040513d602081101561044757600080fd5b50505056fea2646970667358221220399865aa87e76d61a48cda63b5ba2485aa043669e0392bf4ce2fee2cc7558e0b64736f6c634300070000330000000000000000000000001f75cdb5c9f0513cea9f3e8aab9f3b49cedb405b"
        }
      ],
      "isFixedGasLimit": false
    },
    {
      "hash": "0x9fd9b63ab6573992cc46c9410aa1d0066059b5291a6b65b7f205a10d119f2aa4",
      "transactionType": "CALL",
      "contractName": null,
      "contractAddress": "0xbaf2624bc4a7a8acb463b9b3eb68adfda9ec5a33",
      "function": "buy(uint256)",
      "arguments": [
        "441711766194596082395824375185729628956870974218904739530401550323154944"
      ],
      "transaction": {
        "from": "0xbfb3fd95879d2819256fee1ae754d14c9641d10a",
        "to": "0xbaf2624bc4a7a8acb463b9b3eb68adfda9ec5a33",
        "gas": "0x14635",
        "value": "0x0",
        "input": "0xd96a094a0000400000000000000000000000000000000000000000000000000000000000",
        "nonce": "0x7",
        "chainId": "0xaa36a7"
      },
      "additionalContracts": [],
      "isFixedGasLimit": false
    },
    {
      "hash": "0x1297aa51139abe00236cf766dfce8292e6c1d1ea7b5c611e476814bd066e3ca3",
      "transactionType": "CALL",
      "contractName": null,
      "contractAddress": "0xbaf2624bc4a7a8acb463b9b3eb68adfda9ec5a33",
      "function": "sell(uint256)",
      "arguments": [
        "1"
      ],
      "transaction": {
        "from": "0xbfb3fd95879d2819256fee1ae754d14c9641d10a",
        "to": "0xbaf2624bc4a7a8acb463b9b3eb68adfda9ec5a33",
        "gas": "0xd5f4",
        "value": "0x0",
        "input": "0xe4849b320000000000000000000000000000000000000000000000000000000000000001",
        "nonce": "0x8",
        "chainId": "0xaa36a7"
      },
      "additionalContracts": [],
      "isFixedGasLimit": false
    },
    {
      "hash": "0xd9483d5ac1d10ed73a198cf39fe68b2bc51f22750c78820f4c2b13b604b29b9d",
      "transactionType": "CALL",
      "contractName": null,
      "contractAddress": "0x57194636816ddb2b0b0c257e679db8553ceedfa2",
      "function": "Complete(address)",
      "arguments": [
        "0xBAF2624bc4A7A8aCB463B9B3eb68adfda9ec5A33"
      ],
      "transaction": {
        "from": "0xbfb3fd95879d2819256fee1ae754d14c9641d10a",
        "to": "0x57194636816ddb2b0b0c257e679db8553ceedfa2",
        "gas": "0x2ec5a",
        "value": "0x0",
        "input": "0xe7e59600000000000000000000000000baf2624bc4a7a8acb463b9b3eb68adfda9ec5a33",
        "nonce": "0x9",
        "chainId": "0xaa36a7"
      },
      "additionalContracts": [],
      "isFixedGasLimit": false
    }
  ],
  "receipts": [
    {
      "status": "0x1",
      "cumulativeGasUsed": "0xa400b2",
      "logs": [
        {
          "address": "0x1f75cdb5c9f0513cea9f3e8aab9f3b49cedb405b",
          "topics": [
            "0xddf252ad1be2c89b69c2b068fc378daa952ba7f163c4a11628f55a4df523b3ef",
            "0x00000000000000000000000057194636816ddb2b0b0c257e679db8553ceedfa2",
            "0x000000000000000000000000baf2624bc4a7a8acb463b9b3eb68adfda9ec5a33"
          ],
          "data": "0x0000000000000000000000000000000000000000000000000de0b6b3a7640000",
          "blockHash": "0xa1774bc45287cd261f2fffae655392d75bf701a38fa26984b9c7d581665a7d5d",
          "blockNumber": "0x8db347",
          "blockTimestamp": "0x68d6fd2c",
          "transactionHash": "0x1afad3dc31abf80dc8de5b286d708c53851290dc61e73def31f16ecc2ba25a6c",
          "transactionIndex": "0x4a",
          "logIndex": "0x4f",
          "removed": false
        }
      ],
      "logsBloom": "0x00000000000000000000000000000000000000000000000000000000000000000000000000000000000000000000000000020000000000000000000000000000000000000000000000000008000000000000000000000000000000000000000000000000000000000000000000000000004000000000000000000010000880000000000000000000000000000000000000000000000000000000000000000001000000000000000000000000000200000000000000000000008000000000000000000002000000000000000000000000000000000000000000000000000000000000000000000000000000000000000008000000000000000000000000008000",
      "type": "0x2",
      "transactionHash": "0x1afad3dc31abf80dc8de5b286d708c53851290dc61e73def31f16ecc2ba25a6c",
      "transactionIndex": "0x4a",
      "blockHash": "0xa1774bc45287cd261f2fffae655392d75bf701a38fa26984b9c7d581665a7d5d",
      "blockNumber": "0x8db347",
      "gasUsed": "0x72098",
      "effectiveGasPrice": "0xf4251",
      "from": "0xbfb3fd95879d2819256fee1ae754d14c9641d10a",
      "to": "0x57194636816ddb2b0b0c257e679db8553ceedfa2",
      "contractAddress": null
    },
    {
      "status": "0x1",
      "cumulativeGasUsed": "0xa4ecde",
      "logs": [
        {
          "address": "0x1f75cdb5c9f0513cea9f3e8aab9f3b49cedb405b",
          "topics": [
            "0xddf252ad1be2c89b69c2b068fc378daa952ba7f163c4a11628f55a4df523b3ef",
            "0x000000000000000000000000bfb3fd95879d2819256fee1ae754d14c9641d10a",
            "0x000000000000000000000000baf2624bc4a7a8acb463b9b3eb68adfda9ec5a33"
          ],
          "data": "0x0000000000000000000000000000000000000000000000000000000000000000",
          "blockHash": "0xa1774bc45287cd261f2fffae655392d75bf701a38fa26984b9c7d581665a7d5d",
          "blockNumber": "0x8db347",
          "blockTimestamp": "0x68d6fd2c",
          "transactionHash": "0x9fd9b63ab6573992cc46c9410aa1d0066059b5291a6b65b7f205a10d119f2aa4",
          "transactionIndex": "0x4b",
          "logIndex": "0x50",
          "removed": false
        },
        {
          "address": "0x1f75cdb5c9f0513cea9f3e8aab9f3b49cedb405b",
          "topics": [
            "0x8c5be1e5ebec7d5bd14f71427d1e84f3dd0314c0f7b2291e5b200ac8c7c3b925",
            "0x000000000000000000000000bfb3fd95879d2819256fee1ae754d14c9641d10a",
            "0x000000000000000000000000baf2624bc4a7a8acb463b9b3eb68adfda9ec5a33"
          ],
          "data": "0x0000000000000000000000000000000000000000000000000000000000000000",
          "blockHash": "0xa1774bc45287cd261f2fffae655392d75bf701a38fa26984b9c7d581665a7d5d",
          "blockNumber": "0x8db347",
          "blockTimestamp": "0x68d6fd2c",
          "transactionHash": "0x9fd9b63ab6573992cc46c9410aa1d0066059b5291a6b65b7f205a10d119f2aa4",
          "transactionIndex": "0x4b",
          "logIndex": "0x51",
          "removed": false
        }
      ],
      "logsBloom": "0x00000000080000000000000000000000000000000000000000000000000000000000000000000000000000000000000000000000000000000000000000200000000000000000000000000008000000000000000000000000000000000000000000000000000000000000000000000000004008000000000000000010000880000000000000000000000000000000000002000000000000000000000000000000020000000000000000000000000200000000000000000000008000000000000000000002000000000000000000000000000000000000000000000000000000000010000000000000000000000000000000000000000000000000000000008000",
      "type": "0x2",
      "transactionHash": "0x9fd9b63ab6573992cc46c9410aa1d0066059b5291a6b65b7f205a10d119f2aa4",
      "transactionIndex": "0x4b",
      "blockHash": "0xa1774bc45287cd261f2fffae655392d75bf701a38fa26984b9c7d581665a7d5d",
      "blockNumber": "0x8db347",
      "gasUsed": "0xec2c",
      "effectiveGasPrice": "0xf4251",
      "from": "0xbfb3fd95879d2819256fee1ae754d14c9641d10a",
      "to": "0xbaf2624bc4a7a8acb463b9b3eb68adfda9ec5a33",
      "contractAddress": null
    },
    {
      "status": "0x1",
      "cumulativeGasUsed": "0xa587c5",
      "logs": [
        {
          "address": "0x1f75cdb5c9f0513cea9f3e8aab9f3b49cedb405b",
          "topics": [
            "0xddf252ad1be2c89b69c2b068fc378daa952ba7f163c4a11628f55a4df523b3ef",
            "0x000000000000000000000000baf2624bc4a7a8acb463b9b3eb68adfda9ec5a33",
            "0x000000000000000000000000bfb3fd95879d2819256fee1ae754d14c9641d10a"
          ],
          "data": "0x0000000000000000000000000000000000000000000000000de0b6b3a7640000",
          "blockHash": "0xa1774bc45287cd261f2fffae655392d75bf701a38fa26984b9c7d581665a7d5d",
          "blockNumber": "0x8db347",
          "blockTimestamp": "0x68d6fd2c",
          "transactionHash": "0x1297aa51139abe00236cf766dfce8292e6c1d1ea7b5c611e476814bd066e3ca3",
          "transactionIndex": "0x4c",
          "logIndex": "0x52",
          "removed": false
        }
      ],
      "logsBloom": "0x00000000080000000000000000000000000000000000000000000000000000000000000000000000000000000000000000000000000000000000000000000000000000000000000000000008000000000000000000000000000000000000000000000000000000000000000000000000004008000000000000000010000880000000000000000000000000000000000002000000000000000000000000000000000000000000000000000000000200000000000000000000008000000000000000000002000000000000000000000000000000000000000000000000000000000000000000000000000000000000000000000000000000000000000000008000",
      "type": "0x2",
      "transactionHash": "0x1297aa51139abe00236cf766dfce8292e6c1d1ea7b5c611e476814bd066e3ca3",
      "transactionIndex": "0x4c",
      "blockHash": "0xa1774bc45287cd261f2fffae655392d75bf701a38fa26984b9c7d581665a7d5d",
      "blockNumber": "0x8db347",
      "gasUsed": "0x9ae7",
      "effectiveGasPrice": "0xf4251",
      "from": "0xbfb3fd95879d2819256fee1ae754d14c9641d10a",
      "to": "0xbaf2624bc4a7a8acb463b9b3eb68adfda9ec5a33",
      "contractAddress": null
    },
    {
      "status": "0x1",
      "cumulativeGasUsed": "0xa7a591",
      "logs": [],
      "logsBloom": "0x00000000000000000000000000000000000000000000000000000000000000000000000000000000000000000000000000000000000000000000000000000000000000000000000000000000000000000000000000000000000000000000000000000000000000000000000000000000000000000000000000000000000000000000000000000000000000000000000000000000000000000000000000000000000000000000000000000000000000000000000000000000000000000000000000000000000000000000000000000000000000000000000000000000000000000000000000000000000000000000000000000000000000000000000000000000",
      "type": "0x2",
      "transactionHash": "0xd9483d5ac1d10ed73a198cf39fe68b2bc51f22750c78820f4c2b13b604b29b9d",
      "transactionIndex": "0x4d",
      "blockHash": "0xa1774bc45287cd261f2fffae655392d75bf701a38fa26984b9c7d581665a7d5d",
      "blockNumber": "0x8db347",
      "gasUsed": "0x21dcc",
      "effectiveGasPrice": "0xf4251",
      "from": "0xbfb3fd95879d2819256fee1ae754d14c9641d10a",
      "to": "0x57194636816ddb2b0b0c257e679db8553ceedfa2",
      "contractAddress": null
    }
  ],
  "libraries": [],
  "pending": [],
  "returns": {},
  "timestamp": 1758919983,
  "chain": 11155111,
  "commit": "7843dda"
}